{
  "address": "0x5FbDB2315678afecb367f032d93F642f64180aa3",
  "abi": [
    {
      "anonymous": false,
      "inputs": [
        {
          "indexed": false,
          "internalType": "address",
          "name": "recipient",
          "type": "address"
        },
        {
          "indexed": false,
          "internalType": "uint256",
          "name": "taskId",
          "type": "uint256"
        }
      ],
      "name": "AddTask",
      "type": "event"
    },
    {
      "anonymous": false,
      "inputs": [
        {
          "indexed": false,
          "internalType": "uint256",
          "name": "taskId",
          "type": "uint256"
        },
        {
          "indexed": false,
          "internalType": "bool",
          "name": "isDeleted",
          "type": "bool"
        }
      ],
      "name": "DeleteTask",
      "type": "event"
    },
    {
      "stateMutability": "payable",
      "type": "fallback"
    },
    {
      "inputs": [
        {
          "internalType": "string",
          "name": "taskText",
          "type": "string"
        },
        {
          "internalType": "bool",
          "name": "isDeleted",
          "type": "bool"
        }
      ],
      "name": "addTask",
      "outputs": [],
      "stateMutability": "nonpayable",
      "type": "function"
    },
    {
      "inputs": [
        {
          "internalType": "uint256",
          "name": "taskId",
          "type": "uint256"
        },
        {
          "internalType": "bool",
          "name": "isDeleted",
          "type": "bool"
        }
      ],
      "name": "deleteTask",
      "outputs": [],
      "stateMutability": "nonpayable",
      "type": "function"
    },
    {
      "inputs": [],
      "name": "getMyTasks",
      "outputs": [
        {
          "components": [
            {
              "internalType": "uint256",
              "name": "id",
              "type": "uint256"
            },
            {
              "internalType": "string",
              "name": "taskText",
              "type": "string"
            },
            {
              "internalType": "bool",
              "name": "isDeleted",
              "type": "bool"
            }
          ],
          "internalType": "struct ToDoList.Task[]",
          "name": "",
          "type": "tuple[]"
        }
      ],
      "stateMutability": "view",
      "type": "function"
    },
    {
      "stateMutability": "payable",
      "type": "receive"
    }
  ],
  "transactionHash": "0x2b68d32ef95c8c3a50c490a67bdccccfda9723b92643e56d754147537e5146f0",
  "args": [],
  "numDeployments": 1,
  "solcInputHash": "cc4babff7bbcdad85810f07da11d4db4",
  "bytecode": "0x608060405234801561001057600080fd5b50610e84806100206000396000f3fe6080604052600436106100385760003560e01c806320df4581146100415780636e13f8181461006a578063aaba2907146100955761003f565b3661003f57005b005b34801561004d57600080fd5b506100686004803603810190610063919061076d565b6100be565b005b34801561007657600080fd5b5061007f6101e1565b60405161008c919061098b565b60405180910390f35b3480156100a157600080fd5b506100bc60048036038101906100b791906109d9565b6104d7565b005b60008080549050905060006040518060600160405280838152602001858152602001841515815250908060018154018082558091505060019003906000526020600020906003020160009091909190915060008201518160000155602082015181600101908161012e9190610c25565b5060408201518160020160006101000a81548160ff0219169083151502179055505050336001600083815260200190815260200160002060006101000a81548173ffffffffffffffffffffffffffffffffffffffff021916908373ffffffffffffffffffffffffffffffffffffffff1602179055507f1f54e1ba1832d428fbd7e7792beaf62b1fc5a382c207ffd614209c1413e94fda33826040516101d4929190610d47565b60405180910390a1505050565b60606000808054905067ffffffffffffffff8111156102035761020261060a565b5b60405190808252806020026020018201604052801561023c57816020015b6102296105b8565b8152602001906001900390816102215790505b5090506000805b60008054905081101561041d573373ffffffffffffffffffffffffffffffffffffffff166001600083815260200190815260200160002060009054906101000a900473ffffffffffffffffffffffffffffffffffffffff1673ffffffffffffffffffffffffffffffffffffffff161480156102f4575060001515600082815481106102d1576102d0610d70565b5b906000526020600020906003020160020160009054906101000a900460ff161515145b1561040a576000818154811061030d5761030c610d70565b5b90600052602060002090600302016040518060600160405290816000820154815260200160018201805461034090610a48565b80601f016020809104026020016040519081016040528092919081815260200182805461036c90610a48565b80156103b95780601f1061038e576101008083540402835291602001916103b9565b820191906000526020600020905b81548152906001019060200180831161039c57829003601f168201915b505050505081526020016002820160009054906101000a900460ff1615151515815250508383815181106103f0576103ef610d70565b5b6020026020010181905250818061040690610dce565b9250505b808061041590610dce565b915050610243565b5060008167ffffffffffffffff81111561043a5761043961060a565b5b60405190808252806020026020018201604052801561047357816020015b6104606105b8565b8152602001906001900390816104585790505b50905060005b828110156104cd5783818151811061049457610493610d70565b5b60200260200101518282815181106104af576104ae610d70565b5b602002602001018190525080806104c590610dce565b915050610479565b5080935050505090565b3373ffffffffffffffffffffffffffffffffffffffff166001600084815260200190815260200160002060009054906101000a900473ffffffffffffffffffffffffffffffffffffffff1673ffffffffffffffffffffffffffffffffffffffff16036105b457806000838154811061055257610551610d70565b5b906000526020600020906003020160020160006101000a81548160ff0219169083151502179055507ff88a35c3d2016c409a46570b994a17b408dbc83c14a03f521512d50b85386d0682826040516105ab929190610e25565b60405180910390a15b5050565b604051806060016040528060008152602001606081526020016000151581525090565b6000604051905090565b600080fd5b600080fd5b600080fd5b600080fd5b6000601f19601f8301169050919050565b7f4e487b7100000000000000000000000000000000000000000000000000000000600052604160045260246000fd5b610642826105f9565b810181811067ffffffffffffffff821117156106615761066061060a565b5b80604052505050565b60006106746105db565b90506106808282610639565b919050565b600067ffffffffffffffff8211156106a05761069f61060a565b5b6106a9826105f9565b9050602081019050919050565b82818337600083830152505050565b60006106d86106d384610685565b61066a565b9050828152602081018484840111156106f4576106f36105f4565b5b6106ff8482856106b6565b509392505050565b600082601f83011261071c5761071b6105ef565b5b813561072c8482602086016106c5565b91505092915050565b60008115159050919050565b61074a81610735565b811461075557600080fd5b50565b60008135905061076781610741565b92915050565b60008060408385031215610784576107836105e5565b5b600083013567ffffffffffffffff8111156107a2576107a16105ea565b5b6107ae85828601610707565b92505060206107bf85828601610758565b9150509250929050565b600081519050919050565b600082825260208201905092915050565b6000819050602082019050919050565b6000819050919050565b610808816107f5565b82525050565b600081519050919050565b600082825260208201905092915050565b60005b8381101561084857808201518184015260208101905061082d565b83811115610857576000848401525b50505050565b60006108688261080e565b6108728185610819565b935061088281856020860161082a565b61088b816105f9565b840191505092915050565b61089f81610735565b82525050565b60006060830160008301516108bd60008601826107ff565b50602083015184820360208601526108d5828261085d565b91505060408301516108ea6040860182610896565b508091505092915050565b600061090183836108a5565b905092915050565b6000602082019050919050565b6000610921826107c9565b61092b81856107d4565b93508360208202850161093d856107e5565b8060005b85811015610979578484038952815161095a85826108f5565b945061096583610909565b925060208a01995050600181019050610941565b50829750879550505050505092915050565b600060208201905081810360008301526109a58184610916565b905092915050565b6109b6816107f5565b81146109c157600080fd5b50565b6000813590506109d3816109ad565b92915050565b600080604083850312156109f0576109ef6105e5565b5b60006109fe858286016109c4565b9250506020610a0f85828601610758565b9150509250929050565b7f4e487b7100000000000000000000000000000000000000000000000000000000600052602260045260246000fd5b60006002820490506001821680610a6057607f821691505b602082108103610a7357610a72610a19565b5b50919050565b60008190508160005260206000209050919050565b60006020601f8301049050919050565b600082821b905092915050565b600060088302610adb7fffffffffffffffffffffffffffffffffffffffffffffffffffffffffffffffff82610a9e565b610ae58683610a9e565b95508019841693508086168417925050509392505050565b6000819050919050565b6000610b22610b1d610b18846107f5565b610afd565b6107f5565b9050919050565b6000819050919050565b610b3c83610b07565b610b50610b4882610b29565b848454610aab565b825550505050565b600090565b610b65610b58565b610b70818484610b33565b505050565b5b81811015610b9457610b89600082610b5d565b600181019050610b76565b5050565b601f821115610bd957610baa81610a79565b610bb384610a8e565b81016020851015610bc2578190505b610bd6610bce85610a8e565b830182610b75565b50505b505050565b600082821c905092915050565b6000610bfc60001984600802610bde565b1980831691505092915050565b6000610c158383610beb565b9150826002028217905092915050565b610c2e8261080e565b67ffffffffffffffff811115610c4757610c4661060a565b5b610c518254610a48565b610c5c828285610b98565b600060209050601f831160018114610c8f5760008415610c7d578287015190505b610c878582610c09565b865550610cef565b601f198416610c9d86610a79565b60005b82811015610cc557848901518255600182019150602085019450602081019050610ca0565b86831015610ce25784890151610cde601f891682610beb565b8355505b6001600288020188555050505b505050505050565b600073ffffffffffffffffffffffffffffffffffffffff82169050919050565b6000610d2282610cf7565b9050919050565b610d3281610d17565b82525050565b610d41816107f5565b82525050565b6000604082019050610d5c6000830185610d29565b610d696020830184610d38565b9392505050565b7f4e487b7100000000000000000000000000000000000000000000000000000000600052603260045260246000fd5b7f4e487b7100000000000000000000000000000000000000000000000000000000600052601160045260246000fd5b6000610dd9826107f5565b91507fffffffffffffffffffffffffffffffffffffffffffffffffffffffffffffffff8203610e0b57610e0a610d9f565b5b600182019050919050565b610e1f81610735565b82525050565b6000604082019050610e3a6000830185610d38565b610e476020830184610e16565b939250505056fea26469706673582212203ccd30c809db423b057ccf9da8190e3b5c514899faeef15249d814ab3b91f65464736f6c634300080f0033",
  "devdoc": {
    "kind": "dev",
    "methods": {},
    "version": 1
  },
  "userdoc": {
    "kind": "user",
    "methods": {},
    "version": 1
  },
  "storageLayout": {
    "storage": [
      {
        "astId": 103,
        "contract": "contracts/ToDoList.sol:ToDoList",
        "label": "tasks",
        "offset": 0,
        "slot": "0",
        "type": "t_array(t_struct(Task)99_storage)dyn_storage"
      },
      {
        "astId": 107,
        "contract": "contracts/ToDoList.sol:ToDoList",
        "label": "taskToOwner",
        "offset": 0,
        "slot": "1",
        "type": "t_mapping(t_uint256,t_address)"
      }
    ],
    "types": {
      "t_address": {
        "encoding": "inplace",
        "label": "address",
        "numberOfBytes": "20"
      },
      "t_array(t_struct(Task)99_storage)dyn_storage": {
        "base": "t_struct(Task)99_storage",
        "encoding": "dynamic_array",
        "label": "struct ToDoList.Task[]",
        "numberOfBytes": "32"
      },
      "t_bool": {
        "encoding": "inplace",
        "label": "bool",
        "numberOfBytes": "1"
      },
      "t_mapping(t_uint256,t_address)": {
        "encoding": "mapping",
        "key": "t_uint256",
        "label": "mapping(uint256 => address)",
        "numberOfBytes": "32",
        "value": "t_address"
      },
      "t_string_storage": {
        "encoding": "bytes",
        "label": "string",
        "numberOfBytes": "32"
      },
      "t_struct(Task)99_storage": {
        "encoding": "inplace",
        "label": "struct ToDoList.Task",
        "members": [
          {
            "astId": 94,
            "contract": "contracts/ToDoList.sol:ToDoList",
            "label": "id",
            "offset": 0,
            "slot": "0",
            "type": "t_uint256"
          },
          {
            "astId": 96,
            "contract": "contracts/ToDoList.sol:ToDoList",
            "label": "taskText",
            "offset": 0,
            "slot": "1",
            "type": "t_string_storage"
          },
          {
            "astId": 98,
            "contract": "contracts/ToDoList.sol:ToDoList",
            "label": "isDeleted",
            "offset": 0,
            "slot": "2",
            "type": "t_bool"
          }
        ],
        "numberOfBytes": "96"
      },
      "t_uint256": {
        "encoding": "inplace",
        "label": "uint256",
        "numberOfBytes": "32"
      }
    }
  }
}