{
  "address": "0x5FbDB2315678afecb367f032d93F642f64180aa3",
  "abi": [
    {
      "anonymous": false,
      "inputs": [
        {
          "indexed": false,
          "internalType": "address",
          "name": "recipient",
          "type": "address"
        },
        {
          "indexed": false,
          "internalType": "uint256",
          "name": "taskId",
          "type": "uint256"
        }
      ],
      "name": "AddTask",
      "type": "event"
    },
    {
      "anonymous": false,
      "inputs": [
        {
          "indexed": false,
          "internalType": "uint256",
          "name": "taskId",
          "type": "uint256"
        },
        {
          "indexed": false,
          "internalType": "bool",
          "name": "isDeleted",
          "type": "bool"
        }
      ],
      "name": "DeleteTask",
      "type": "event"
    },
    {
      "stateMutability": "payable",
      "type": "fallback"
    },
    {
      "inputs": [
        {
          "internalType": "string",
          "name": "taskText",
          "type": "string"
        },
        {
          "internalType": "bool",
          "name": "isDeleted",
          "type": "bool"
        }
      ],
      "name": "addTask",
      "outputs": [],
      "stateMutability": "nonpayable",
      "type": "function"
    },
    {
      "inputs": [
        {
          "internalType": "uint256",
          "name": "taskId",
          "type": "uint256"
        },
        {
          "internalType": "bool",
          "name": "isDeleted",
          "type": "bool"
        }
      ],
      "name": "deleteTask",
      "outputs": [],
      "stateMutability": "nonpayable",
      "type": "function"
    },
    {
      "inputs": [],
      "name": "getAllTasks",
      "outputs": [
        {
          "components": [
            {
              "internalType": "uint256",
              "name": "id",
              "type": "uint256"
            },
            {
              "internalType": "string",
              "name": "taskText",
              "type": "string"
            },
            {
              "internalType": "bool",
              "name": "isDeleted",
              "type": "bool"
            }
          ],
          "internalType": "struct ToDoList.Task[]",
          "name": "",
          "type": "tuple[]"
        }
      ],
      "stateMutability": "view",
      "type": "function"
    },
    {
      "inputs": [],
      "name": "getMyTasks",
      "outputs": [
        {
          "components": [
            {
              "internalType": "uint256",
              "name": "id",
              "type": "uint256"
            },
            {
              "internalType": "string",
              "name": "taskText",
              "type": "string"
            },
            {
              "internalType": "bool",
              "name": "isDeleted",
              "type": "bool"
            }
          ],
          "internalType": "struct ToDoList.Task[]",
          "name": "",
          "type": "tuple[]"
        }
      ],
      "stateMutability": "view",
      "type": "function"
    },
    {
      "stateMutability": "payable",
      "type": "receive"
    }
  ],
  "transactionHash": "0xe95828fb5e39fe841173ec30f40b126b118da810ee281b1c60b46d0017bcaf17",
  "args": [],
  "numDeployments": 1,
  "solcInputHash": "fbd63366aae87840ff5f21a077ba967d",
  "bytecode": "0x608060405234801561001057600080fd5b50610fd0806100206000396000f3fe6080604052600436106100435760003560e01c806320df45811461004c5780636e13f81814610075578063779900b4146100a0578063aaba2907146100cb5761004a565b3661004a57005b005b34801561005857600080fd5b50610073600480360381019061006e91906108b9565b6100f4565b005b34801561008157600080fd5b5061008a610217565b6040516100979190610ad7565b60405180910390f35b3480156100ac57600080fd5b506100b561050d565b6040516100c29190610ad7565b60405180910390f35b3480156100d757600080fd5b506100f260048036038101906100ed9190610b25565b610623565b005b6000808054905090506000604051806060016040528083815260200185815260200184151581525090806001815401808255809150506001900390600052602060002090600302016000909190919091506000820151816000015560208201518160010190816101649190610d71565b5060408201518160020160006101000a81548160ff0219169083151502179055505050336001600083815260200190815260200160002060006101000a81548173ffffffffffffffffffffffffffffffffffffffff021916908373ffffffffffffffffffffffffffffffffffffffff1602179055507f1f54e1ba1832d428fbd7e7792beaf62b1fc5a382c207ffd614209c1413e94fda338260405161020a929190610e93565b60405180910390a1505050565b60606000808054905067ffffffffffffffff81111561023957610238610756565b5b60405190808252806020026020018201604052801561027257816020015b61025f610704565b8152602001906001900390816102575790505b5090506000805b600080549050811015610453573373ffffffffffffffffffffffffffffffffffffffff166001600083815260200190815260200160002060009054906101000a900473ffffffffffffffffffffffffffffffffffffffff1673ffffffffffffffffffffffffffffffffffffffff1614801561032a5750600015156000828154811061030757610306610ebc565b5b906000526020600020906003020160020160009054906101000a900460ff161515145b15610440576000818154811061034357610342610ebc565b5b90600052602060002090600302016040518060600160405290816000820154815260200160018201805461037690610b94565b80601f01602080910402602001604051908101604052809291908181526020018280546103a290610b94565b80156103ef5780601f106103c4576101008083540402835291602001916103ef565b820191906000526020600020905b8154815290600101906020018083116103d257829003601f168201915b505050505081526020016002820160009054906101000a900460ff16151515158152505083838151811061042657610425610ebc565b5b6020026020010181905250818061043c90610f1a565b9250505b808061044b90610f1a565b915050610279565b5060008167ffffffffffffffff8111156104705761046f610756565b5b6040519080825280602002602001820160405280156104a957816020015b610496610704565b81526020019060019003908161048e5790505b50905060005b82811015610503578381815181106104ca576104c9610ebc565b5b60200260200101518282815181106104e5576104e4610ebc565b5b602002602001018190525080806104fb90610f1a565b9150506104af565b5080935050505090565b60606000805480602002602001604051908101604052809291908181526020016000905b8282101561061a57838290600052602060002090600302016040518060600160405290816000820154815260200160018201805461056e90610b94565b80601f016020809104026020016040519081016040528092919081815260200182805461059a90610b94565b80156105e75780601f106105bc576101008083540402835291602001916105e7565b820191906000526020600020905b8154815290600101906020018083116105ca57829003601f168201915b505050505081526020016002820160009054906101000a900460ff16151515158152505081526020019060010190610531565b50505050905090565b3373ffffffffffffffffffffffffffffffffffffffff166001600084815260200190815260200160002060009054906101000a900473ffffffffffffffffffffffffffffffffffffffff1673ffffffffffffffffffffffffffffffffffffffff160361070057806000838154811061069e5761069d610ebc565b5b906000526020600020906003020160020160006101000a81548160ff0219169083151502179055507ff88a35c3d2016c409a46570b994a17b408dbc83c14a03f521512d50b85386d0682826040516106f7929190610f71565b60405180910390a15b5050565b604051806060016040528060008152602001606081526020016000151581525090565b6000604051905090565b600080fd5b600080fd5b600080fd5b600080fd5b6000601f19601f8301169050919050565b7f4e487b7100000000000000000000000000000000000000000000000000000000600052604160045260246000fd5b61078e82610745565b810181811067ffffffffffffffff821117156107ad576107ac610756565b5b80604052505050565b60006107c0610727565b90506107cc8282610785565b919050565b600067ffffffffffffffff8211156107ec576107eb610756565b5b6107f582610745565b9050602081019050919050565b82818337600083830152505050565b600061082461081f846107d1565b6107b6565b9050828152602081018484840111156108405761083f610740565b5b61084b848285610802565b509392505050565b600082601f8301126108685761086761073b565b5b8135610878848260208601610811565b91505092915050565b60008115159050919050565b61089681610881565b81146108a157600080fd5b50565b6000813590506108b38161088d565b92915050565b600080604083850312156108d0576108cf610731565b5b600083013567ffffffffffffffff8111156108ee576108ed610736565b5b6108fa85828601610853565b925050602061090b858286016108a4565b9150509250929050565b600081519050919050565b600082825260208201905092915050565b6000819050602082019050919050565b6000819050919050565b61095481610941565b82525050565b600081519050919050565b600082825260208201905092915050565b60005b83811015610994578082015181840152602081019050610979565b838111156109a3576000848401525b50505050565b60006109b48261095a565b6109be8185610965565b93506109ce818560208601610976565b6109d781610745565b840191505092915050565b6109eb81610881565b82525050565b6000606083016000830151610a09600086018261094b565b5060208301518482036020860152610a2182826109a9565b9150506040830151610a3660408601826109e2565b508091505092915050565b6000610a4d83836109f1565b905092915050565b6000602082019050919050565b6000610a6d82610915565b610a778185610920565b935083602082028501610a8985610931565b8060005b85811015610ac55784840389528151610aa68582610a41565b9450610ab183610a55565b925060208a01995050600181019050610a8d565b50829750879550505050505092915050565b60006020820190508181036000830152610af18184610a62565b905092915050565b610b0281610941565b8114610b0d57600080fd5b50565b600081359050610b1f81610af9565b92915050565b60008060408385031215610b3c57610b3b610731565b5b6000610b4a85828601610b10565b9250506020610b5b858286016108a4565b9150509250929050565b7f4e487b7100000000000000000000000000000000000000000000000000000000600052602260045260246000fd5b60006002820490506001821680610bac57607f821691505b602082108103610bbf57610bbe610b65565b5b50919050565b60008190508160005260206000209050919050565b60006020601f8301049050919050565b600082821b905092915050565b600060088302610c277fffffffffffffffffffffffffffffffffffffffffffffffffffffffffffffffff82610bea565b610c318683610bea565b95508019841693508086168417925050509392505050565b6000819050919050565b6000610c6e610c69610c6484610941565b610c49565b610941565b9050919050565b6000819050919050565b610c8883610c53565b610c9c610c9482610c75565b848454610bf7565b825550505050565b600090565b610cb1610ca4565b610cbc818484610c7f565b505050565b5b81811015610ce057610cd5600082610ca9565b600181019050610cc2565b5050565b601f821115610d2557610cf681610bc5565b610cff84610bda565b81016020851015610d0e578190505b610d22610d1a85610bda565b830182610cc1565b50505b505050565b600082821c905092915050565b6000610d4860001984600802610d2a565b1980831691505092915050565b6000610d618383610d37565b9150826002028217905092915050565b610d7a8261095a565b67ffffffffffffffff811115610d9357610d92610756565b5b610d9d8254610b94565b610da8828285610ce4565b600060209050601f831160018114610ddb5760008415610dc9578287015190505b610dd38582610d55565b865550610e3b565b601f198416610de986610bc5565b60005b82811015610e1157848901518255600182019150602085019450602081019050610dec565b86831015610e2e5784890151610e2a601f891682610d37565b8355505b6001600288020188555050505b505050505050565b600073ffffffffffffffffffffffffffffffffffffffff82169050919050565b6000610e6e82610e43565b9050919050565b610e7e81610e63565b82525050565b610e8d81610941565b82525050565b6000604082019050610ea86000830185610e75565b610eb56020830184610e84565b9392505050565b7f4e487b7100000000000000000000000000000000000000000000000000000000600052603260045260246000fd5b7f4e487b7100000000000000000000000000000000000000000000000000000000600052601160045260246000fd5b6000610f2582610941565b91507fffffffffffffffffffffffffffffffffffffffffffffffffffffffffffffffff8203610f5757610f56610eeb565b5b600182019050919050565b610f6b81610881565b82525050565b6000604082019050610f866000830185610e84565b610f936020830184610f62565b939250505056fea2646970667358221220b812bbaf034ff34f7503e3dad43bd8909c834e28f49285db3a6a44c20bee6b1764736f6c634300080f0033",
  "devdoc": {
    "kind": "dev",
    "methods": {},
    "version": 1
  },
  "userdoc": {
    "kind": "user",
    "methods": {},
    "version": 1
  },
  "storageLayout": {
    "storage": [
      {
        "astId": 24,
        "contract": "contracts/ToDoList.sol:ToDoList",
        "label": "tasks",
        "offset": 0,
        "slot": "0",
        "type": "t_array(t_struct(Task)20_storage)dyn_storage"
      },
      {
        "astId": 28,
        "contract": "contracts/ToDoList.sol:ToDoList",
        "label": "taskToOwner",
        "offset": 0,
        "slot": "1",
        "type": "t_mapping(t_uint256,t_address)"
      }
    ],
    "types": {
      "t_address": {
        "encoding": "inplace",
        "label": "address",
        "numberOfBytes": "20"
      },
      "t_array(t_struct(Task)20_storage)dyn_storage": {
        "base": "t_struct(Task)20_storage",
        "encoding": "dynamic_array",
        "label": "struct ToDoList.Task[]",
        "numberOfBytes": "32"
      },
      "t_bool": {
        "encoding": "inplace",
        "label": "bool",
        "numberOfBytes": "1"
      },
      "t_mapping(t_uint256,t_address)": {
        "encoding": "mapping",
        "key": "t_uint256",
        "label": "mapping(uint256 => address)",
        "numberOfBytes": "32",
        "value": "t_address"
      },
      "t_string_storage": {
        "encoding": "bytes",
        "label": "string",
        "numberOfBytes": "32"
      },
      "t_struct(Task)20_storage": {
        "encoding": "inplace",
        "label": "struct ToDoList.Task",
        "members": [
          {
            "astId": 15,
            "contract": "contracts/ToDoList.sol:ToDoList",
            "label": "id",
            "offset": 0,
            "slot": "0",
            "type": "t_uint256"
          },
          {
            "astId": 17,
            "contract": "contracts/ToDoList.sol:ToDoList",
            "label": "taskText",
            "offset": 0,
            "slot": "1",
            "type": "t_string_storage"
          },
          {
            "astId": 19,
            "contract": "contracts/ToDoList.sol:ToDoList",
            "label": "isDeleted",
            "offset": 0,
            "slot": "2",
            "type": "t_bool"
          }
        ],
        "numberOfBytes": "96"
      },
      "t_uint256": {
        "encoding": "inplace",
        "label": "uint256",
        "numberOfBytes": "32"
      }
    }
  }
}